{
  "address": "0xe7f1725E7734CE288F8367e1Bb143E90bb3F0512",
  "abi": [
    {
      "inputs": [
        {
          "internalType": "address",
          "name": "priceFeed",
          "type": "address"
        }
      ],
      "stateMutability": "nonpayable",
      "type": "constructor"
    },
    {
      "inputs": [],
      "name": "MINIMUM_USD",
      "outputs": [
        {
          "internalType": "uint256",
          "name": "",
          "type": "uint256"
        }
      ],
      "stateMutability": "view",
      "type": "function"
    },
    {
      "inputs": [],
      "name": "PriceFeed",
      "outputs": [
        {
          "internalType": "contract AggregatorV3Interface",
          "name": "",
          "type": "address"
        }
      ],
      "stateMutability": "view",
      "type": "function"
    },
    {
      "inputs": [],
      "name": "cheaperWithdraw",
      "outputs": [],
      "stateMutability": "nonpayable",
      "type": "function"
    },
    {
      "inputs": [],
      "name": "fund",
      "outputs": [],
      "stateMutability": "payable",
      "type": "function"
    },
    {
      "inputs": [
        {
          "internalType": "address",
          "name": "fundingAddress",
          "type": "address"
        }
      ],
      "name": "getAddressToAmountFunded",
      "outputs": [
        {
          "internalType": "uint256",
          "name": "",
          "type": "uint256"
        }
      ],
      "stateMutability": "view",
      "type": "function"
    },
    {
      "inputs": [
        {
          "internalType": "uint256",
          "name": "index",
          "type": "uint256"
        }
      ],
      "name": "getFunder",
      "outputs": [
        {
          "internalType": "address",
          "name": "",
          "type": "address"
        }
      ],
      "stateMutability": "view",
      "type": "function"
    },
    {
      "inputs": [],
      "name": "getOwner",
      "outputs": [
        {
          "internalType": "address",
          "name": "",
          "type": "address"
        }
      ],
      "stateMutability": "view",
      "type": "function"
    },
    {
      "inputs": [],
      "name": "getVersion",
      "outputs": [
        {
          "internalType": "uint256",
          "name": "",
          "type": "uint256"
        }
      ],
      "stateMutability": "view",
      "type": "function"
    },
    {
      "inputs": [],
      "name": "withdraw",
      "outputs": [],
      "stateMutability": "nonpayable",
      "type": "function"
    }
  ],
  "transactionHash": "0x8905ffebda60f06822ed17a7a698ab659355adf89cad8494f44e944873111501",
  "args": [
    "0x5FbDB2315678afecb367f032d93F642f64180aa3"
  ],
  "numDeployments": 1,
  "solcInputHash": "dc5df0986afe29f910cb1357efff47dd",
  "bytecode": "0x60a06040523480156200001157600080fd5b50604051620017383803806200173883398181016040528101906200003791906200021b565b80600260006101000a81548173ffffffffffffffffffffffffffffffffffffffff021916908373ffffffffffffffffffffffffffffffffffffffff1602179055503373ffffffffffffffffffffffffffffffffffffffff1660808173ffffffffffffffffffffffffffffffffffffffff1660601b81525050620000de6040518060600160405280602d81526020016200170b602d9139620000e560201b620009741760201c565b5062000315565b6200018581604051602401620000fc9190620002f1565b6040516020818303038152906040527f41304fac000000000000000000000000000000000000000000000000000000007bffffffffffffffffffffffffffffffffffffffffffffffffffffffff19166020820180517bffffffffffffffffffffffffffffffffffffffffffffffffffffffff83818316178352505050506200018860201b60201c565b50565b60008151905060006a636f6e736f6c652e6c6f679050602083016000808483855afa5050505050565b600080fd5b600073ffffffffffffffffffffffffffffffffffffffff82169050919050565b6000620001e382620001b6565b9050919050565b620001f581620001d6565b81146200020157600080fd5b50565b6000815190506200021581620001ea565b92915050565b600060208284031215620002345762000233620001b1565b5b6000620002448482850162000204565b91505092915050565b600081519050919050565b600082825260208201905092915050565b60005b83811015620002895780820151818401526020810190506200026c565b8381111562000299576000848401525b50505050565b6000601f19601f8301169050919050565b6000620002bd826200024d565b620002c9818562000258565b9350620002db81856020860162000269565b620002e6816200029f565b840191505092915050565b600060208201905081810360008301526200030d8184620002b0565b905092915050565b60805160601c6113bb6200035060003960008181610305015281816104a10152818161053f01528181610698015261089701526113bb6000f3fe6080604052600436106100865760003560e01c80636b69a592116100595780636b69a59214610135578063893d20e814610160578063b60d42881461018b578063be2693f014610195578063d7b4750c146101ac57610086565b80630343fb251461008b57806308b7fa31146100c85780630d8e6e2c146100f35780633ccfd60b1461011e575b600080fd5b34801561009757600080fd5b506100b260048036038101906100ad9190610c1c565b6101e9565b6040516100bf9190610c62565b60405180910390f35b3480156100d457600080fd5b506100dd610232565b6040516100ea9190610cdc565b60405180910390f35b3480156100ff57600080fd5b5061010861025c565b6040516101159190610c62565b60405180910390f35b34801561012a57600080fd5b50610133610303565b005b34801561014157600080fd5b5061014a610536565b6040516101579190610c62565b60405180910390f35b34801561016c57600080fd5b5061017561053b565b6040516101829190610d06565b60405180910390f35b610193610563565b005b3480156101a157600080fd5b506101aa610696565b005b3480156101b857600080fd5b506101d360048036038101906101ce9190610d4d565b61092d565b6040516101e09190610d06565b60405180910390f35b6000600160008373ffffffffffffffffffffffffffffffffffffffff1673ffffffffffffffffffffffffffffffffffffffff168152602001908152602001600020549050919050565b6000600260009054906101000a900473ffffffffffffffffffffffffffffffffffffffff16905090565b6000600260009054906101000a900473ffffffffffffffffffffffffffffffffffffffff1673ffffffffffffffffffffffffffffffffffffffff166354fd4d506040518163ffffffff1660e01b815260040160206040518083038186803b1580156102c657600080fd5b505afa1580156102da573d6000803e3d6000fd5b505050506040513d601f19601f820116820180604052508101906102fe9190610d8f565b905090565b7f000000000000000000000000000000000000000000000000000000000000000073ffffffffffffffffffffffffffffffffffffffff163373ffffffffffffffffffffffffffffffffffffffff1614610391576040517f08c379a000000000000000000000000000000000000000000000000000000000815260040161038890610e19565b60405180910390fd5b60005b60008054905081101561043c5760008082815481106103b6576103b5610e39565b5b9060005260206000200160009054906101000a900473ffffffffffffffffffffffffffffffffffffffff1690506000600160008373ffffffffffffffffffffffffffffffffffffffff1673ffffffffffffffffffffffffffffffffffffffff1681526020019081526020016000208190555050808061043490610e97565b915050610394565b50600067ffffffffffffffff81111561045857610457610ee0565b5b6040519080825280602002602001820160405280156104865781602001602082028036833780820191505090505b506000908051906020019061049c929190610b12565b5060007f000000000000000000000000000000000000000000000000000000000000000073ffffffffffffffffffffffffffffffffffffffff16476040516104e390610f40565b60006040518083038185875af1925050503d8060008114610520576040519150601f19603f3d011682016040523d82523d6000602084013e610525565b606091505b505090508061053357600080fd5b50565b603281565b60007f0000000000000000000000000000000000000000000000000000000000000000905090565b603261059a600260009054906101000a900473ffffffffffffffffffffffffffffffffffffffff1634610a0d90919063ffffffff16565b10156105db576040517f08c379a00000000000000000000000000000000000000000000000000000000081526004016105d290610fa1565b60405180910390fd5b34600160003373ffffffffffffffffffffffffffffffffffffffff1673ffffffffffffffffffffffffffffffffffffffff168152602001908152602001600020600082825461062a9190610fc1565b925050819055506000339080600181540180825580915050600190039060005260206000200160009091909190916101000a81548173ffffffffffffffffffffffffffffffffffffffff021916908373ffffffffffffffffffffffffffffffffffffffff160217905550565b7f000000000000000000000000000000000000000000000000000000000000000073ffffffffffffffffffffffffffffffffffffffff163373ffffffffffffffffffffffffffffffffffffffff1614610724576040517f08c379a000000000000000000000000000000000000000000000000000000000815260040161071b90610e19565b60405180910390fd5b6000808054806020026020016040519081016040528092919081815260200182805480156107a757602002820191906000526020600020905b8160009054906101000a900473ffffffffffffffffffffffffffffffffffffffff1673ffffffffffffffffffffffffffffffffffffffff168152602001906001019080831161075d575b5050505050905060005b81518110156108325760008282815181106107cf576107ce610e39565b5b602002602001015190506000600160008373ffffffffffffffffffffffffffffffffffffffff1673ffffffffffffffffffffffffffffffffffffffff1681526020019081526020016000208190555050808061082a90610e97565b9150506107b1565b50600067ffffffffffffffff81111561084e5761084d610ee0565b5b60405190808252806020026020018201604052801561087c5781602001602082028036833780820191505090505b5060009080519060200190610892929190610b12565b5060007f000000000000000000000000000000000000000000000000000000000000000073ffffffffffffffffffffffffffffffffffffffff16476040516108d990610f40565b60006040518083038185875af1925050503d8060008114610916576040519150601f19603f3d011682016040523d82523d6000602084013e61091b565b606091505b505090508061092957600080fd5b5050565b600080828154811061094257610941610e39565b5b9060005260206000200160009054906101000a900473ffffffffffffffffffffffffffffffffffffffff169050919050565b610a0a81604051602401610988919061109f565b6040516020818303038152906040527f41304fac000000000000000000000000000000000000000000000000000000007bffffffffffffffffffffffffffffffffffffffffffffffffffffffff19166020820180517bffffffffffffffffffffffffffffffffffffffffffffffffffffffff8381831617835250505050610a49565b50565b600080610a1983610a72565b90506000670de0b6b3a76400008583610a3291906110c1565b610a3c919061114a565b9050809250505092915050565b60008151905060006a636f6e736f6c652e6c6f679050602083016000808483855afa5050505050565b6000808273ffffffffffffffffffffffffffffffffffffffff1663feaf968c6040518163ffffffff1660e01b815260040160a06040518083038186803b158015610abb57600080fd5b505afa158015610acf573d6000803e3d6000fd5b505050506040513d601f19601f82011682018060405250810190610af391906111f3565b5050509150506402540be40081610b0a919061126e565b915050919050565b828054828255906000526020600020908101928215610b8b579160200282015b82811115610b8a5782518260006101000a81548173ffffffffffffffffffffffffffffffffffffffff021916908373ffffffffffffffffffffffffffffffffffffffff16021790555091602001919060010190610b32565b5b509050610b989190610b9c565b5090565b5b80821115610bb5576000816000905550600101610b9d565b5090565b600080fd5b600073ffffffffffffffffffffffffffffffffffffffff82169050919050565b6000610be982610bbe565b9050919050565b610bf981610bde565b8114610c0457600080fd5b50565b600081359050610c1681610bf0565b92915050565b600060208284031215610c3257610c31610bb9565b5b6000610c4084828501610c07565b91505092915050565b6000819050919050565b610c5c81610c49565b82525050565b6000602082019050610c776000830184610c53565b92915050565b6000819050919050565b6000610ca2610c9d610c9884610bbe565b610c7d565b610bbe565b9050919050565b6000610cb482610c87565b9050919050565b6000610cc682610ca9565b9050919050565b610cd681610cbb565b82525050565b6000602082019050610cf16000830184610ccd565b92915050565b610d0081610bde565b82525050565b6000602082019050610d1b6000830184610cf7565b92915050565b610d2a81610c49565b8114610d3557600080fd5b50565b600081359050610d4781610d21565b92915050565b600060208284031215610d6357610d62610bb9565b5b6000610d7184828501610d38565b91505092915050565b600081519050610d8981610d21565b92915050565b600060208284031215610da557610da4610bb9565b5b6000610db384828501610d7a565b91505092915050565b600082825260208201905092915050565b7f46756e644d655f4e6f744f776e65720000000000000000000000000000000000600082015250565b6000610e03600f83610dbc565b9150610e0e82610dcd565b602082019050919050565b60006020820190508181036000830152610e3281610df6565b9050919050565b7f4e487b7100000000000000000000000000000000000000000000000000000000600052603260045260246000fd5b7f4e487b7100000000000000000000000000000000000000000000000000000000600052601160045260246000fd5b6000610ea282610c49565b91507fffffffffffffffffffffffffffffffffffffffffffffffffffffffffffffffff821415610ed557610ed4610e68565b5b600182019050919050565b7f4e487b7100000000000000000000000000000000000000000000000000000000600052604160045260246000fd5b600081905092915050565b50565b6000610f2a600083610f0f565b9150610f3582610f1a565b600082019050919050565b6000610f4b82610f1d565b9150819050919050565b7f596f75206e65656420746f207370656e64206d6f726520455448210000000000600082015250565b6000610f8b601b83610dbc565b9150610f9682610f55565b602082019050919050565b60006020820190508181036000830152610fba81610f7e565b9050919050565b6000610fcc82610c49565b9150610fd783610c49565b9250827fffffffffffffffffffffffffffffffffffffffffffffffffffffffffffffffff0382111561100c5761100b610e68565b5b828201905092915050565b600081519050919050565b60005b83811015611040578082015181840152602081019050611025565b8381111561104f576000848401525b50505050565b6000601f19601f8301169050919050565b600061107182611017565b61107b8185610dbc565b935061108b818560208601611022565b61109481611055565b840191505092915050565b600060208201905081810360008301526110b98184611066565b905092915050565b60006110cc82610c49565b91506110d783610c49565b9250817fffffffffffffffffffffffffffffffffffffffffffffffffffffffffffffffff04831182151516156111105761110f610e68565b5b828202905092915050565b7f4e487b7100000000000000000000000000000000000000000000000000000000600052601260045260246000fd5b600061115582610c49565b915061116083610c49565b9250826111705761116f61111b565b5b828204905092915050565b600069ffffffffffffffffffff82169050919050565b61119a8161117b565b81146111a557600080fd5b50565b6000815190506111b781611191565b92915050565b6000819050919050565b6111d0816111bd565b81146111db57600080fd5b50565b6000815190506111ed816111c7565b92915050565b600080600080600060a0868803121561120f5761120e610bb9565b5b600061121d888289016111a8565b955050602061122e888289016111de565b945050604061123f88828901610d7a565b935050606061125088828901610d7a565b9250506080611261888289016111a8565b9150509295509295909350565b6000611279826111bd565b9150611284836111bd565b9250827f7fffffffffffffffffffffffffffffffffffffffffffffffffffffffffffffff04821160008413600084131616156112c3576112c2610e68565b5b817f80000000000000000000000000000000000000000000000000000000000000000583126000841260008413161615611300576112ff610e68565b5b827f8000000000000000000000000000000000000000000000000000000000000000058212600084136000841216161561133d5761133c610e68565b5b827f7fffffffffffffffffffffffffffffffffffffffffffffffffffffffffffffff058212600084126000841216161561137a57611379610e68565b5b82820290509291505056fea2646970667358221220f7000cb5adda0cc56b750991742444416879a808abd07b16d83015bfe6acc5af64736f6c634300080800332046756e644d6520636f6e7472616374206973206265696e67206465706c6f796564206e6f7721212121212121",
  "devdoc": {
    "author": "David Kong",
    "details": "This implements price feeds as our library",
    "kind": "dev",
    "methods": {
      "getAddressToAmountFunded(address)": {
        "params": {
          "fundingAddress": "the address of the funder"
        },
        "returns": {
          "_0": "the amount funded"
        }
      }
    },
    "title": "A sample Funding Contract",
    "version": 1
  },
  "userdoc": {
    "kind": "user",
    "methods": {
      "fund()": {
        "notice": "Funds our contract based on the ETH/USD price"
      },
      "getAddressToAmountFunded(address)": {
        "notice": "Gets the amount that an address has funded"
      }
    },
    "notice": "This contract is for creating a sample funding contract",
    "version": 1
  },
  "storageLayout": {
    "storage": [
      {
        "astId": 62,
        "contract": "contracts/FundMe.sol:FundMe",
        "label": "s_funders",
        "offset": 0,
        "slot": "0",
        "type": "t_array(t_address)dyn_storage"
      },
      {
        "astId": 66,
        "contract": "contracts/FundMe.sol:FundMe",
        "label": "s_addressToAmountFunded",
        "offset": 0,
        "slot": "1",
        "type": "t_mapping(t_address,t_uint256)"
      },
      {
        "astId": 69,
        "contract": "contracts/FundMe.sol:FundMe",
        "label": "s_priceFeed",
        "offset": 0,
        "slot": "2",
        "type": "t_contract(AggregatorV3Interface)45"
      }
    ],
    "types": {
      "t_address": {
        "encoding": "inplace",
        "label": "address",
        "numberOfBytes": "20"
      },
      "t_array(t_address)dyn_storage": {
        "base": "t_address",
        "encoding": "dynamic_array",
        "label": "address[]",
        "numberOfBytes": "32"
      },
      "t_contract(AggregatorV3Interface)45": {
        "encoding": "inplace",
        "label": "contract AggregatorV3Interface",
        "numberOfBytes": "20"
      },
      "t_mapping(t_address,t_uint256)": {
        "encoding": "mapping",
        "key": "t_address",
        "label": "mapping(address => uint256)",
        "numberOfBytes": "32",
        "value": "t_uint256"
      },
      "t_uint256": {
        "encoding": "inplace",
        "label": "uint256",
        "numberOfBytes": "32"
      }
    }
  }
}